{
  "contractName": "Donate",
  "abi": [
    {
      "constant": true,
      "inputs": [],
      "name": "minWeiAmount",
      "outputs": [
        {
          "name": "",
          "type": "uint256"
        }
      ],
      "payable": false,
      "stateMutability": "view",
      "type": "function"
    },
    {
      "constant": true,
      "inputs": [],
      "name": "maxNumDonors",
      "outputs": [
        {
          "name": "",
          "type": "uint256"
        }
      ],
      "payable": false,
      "stateMutability": "view",
      "type": "function"
    },
    {
      "constant": true,
      "inputs": [
        {
          "name": "",
          "type": "uint256"
        }
      ],
      "name": "donors",
      "outputs": [
        {
          "name": "",
          "type": "address"
        }
      ],
      "payable": false,
      "stateMutability": "view",
      "type": "function"
    },
    {
      "constant": true,
      "inputs": [],
      "name": "closingTime",
      "outputs": [
        {
          "name": "",
          "type": "uint256"
        }
      ],
      "payable": false,
      "stateMutability": "view",
      "type": "function"
    },
    {
      "constant": true,
      "inputs": [],
      "name": "maxWeiAmount",
      "outputs": [
        {
          "name": "",
          "type": "uint256"
        }
      ],
      "payable": false,
      "stateMutability": "view",
      "type": "function"
    },
    {
      "constant": true,
      "inputs": [],
      "name": "owner",
      "outputs": [
        {
          "name": "",
          "type": "address"
        }
      ],
      "payable": false,
      "stateMutability": "view",
      "type": "function"
    },
    {
      "constant": true,
      "inputs": [],
      "name": "charity",
      "outputs": [
        {
          "name": "",
          "type": "address"
        }
      ],
      "payable": false,
      "stateMutability": "view",
      "type": "function"
    },
    {
      "constant": true,
      "inputs": [
        {
          "name": "",
          "type": "address"
        }
      ],
      "name": "whitelist",
      "outputs": [
        {
          "name": "",
          "type": "bool"
        }
      ],
      "payable": false,
      "stateMutability": "view",
      "type": "function"
    },
    {
      "constant": true,
      "inputs": [],
      "name": "openingTime",
      "outputs": [
        {
          "name": "",
          "type": "uint256"
        }
      ],
      "payable": false,
      "stateMutability": "view",
      "type": "function"
    },
    {
      "constant": false,
      "inputs": [
        {
          "name": "newOwner",
          "type": "address"
        }
      ],
      "name": "transferOwnership",
      "outputs": [],
      "payable": false,
      "stateMutability": "nonpayable",
      "type": "function"
    },
    {
      "inputs": [
        {
          "name": "_charity",
          "type": "address"
        },
        {
          "name": "_openingTime",
          "type": "uint256"
        },
        {
          "name": "_closingTime",
          "type": "uint256"
        },
        {
          "name": "_minWeiAmount",
          "type": "uint256"
        },
        {
          "name": "_maxWeiAmount",
          "type": "uint256"
        },
        {
          "name": "_maxNumDonors",
          "type": "uint256"
        }
      ],
      "payable": false,
      "stateMutability": "nonpayable",
      "type": "constructor"
    },
    {
      "payable": true,
      "stateMutability": "payable",
      "type": "fallback"
    },
    {
      "anonymous": false,
      "inputs": [
        {
          "indexed": true,
          "name": "donor",
          "type": "address"
        },
        {
          "indexed": false,
          "name": "amount",
          "type": "uint256"
        }
      ],
      "name": "Donated",
      "type": "event"
    },
    {
      "anonymous": false,
      "inputs": [
        {
          "indexed": true,
          "name": "previousOwner",
          "type": "address"
        },
        {
          "indexed": true,
          "name": "newOwner",
          "type": "address"
        }
      ],
      "name": "OwnershipTransferred",
      "type": "event"
    },
    {
      "constant": false,
      "inputs": [
        {
          "name": "_donor",
          "type": "address"
        }
      ],
      "name": "donate",
      "outputs": [],
      "payable": true,
      "stateMutability": "payable",
      "type": "function"
    },
    {
      "constant": false,
      "inputs": [
        {
          "name": "_donor",
          "type": "address"
        }
      ],
      "name": "addToWhitelist",
      "outputs": [],
      "payable": false,
      "stateMutability": "nonpayable",
      "type": "function"
    },
    {
      "constant": false,
      "inputs": [
        {
          "name": "_donors",
          "type": "address[]"
        }
      ],
      "name": "addManyToWhitelist",
      "outputs": [],
      "payable": false,
      "stateMutability": "nonpayable",
      "type": "function"
    },
    {
      "constant": false,
      "inputs": [
        {
          "name": "_donor",
          "type": "address"
        }
      ],
      "name": "removeFromWhitelist",
      "outputs": [],
      "payable": false,
      "stateMutability": "nonpayable",
      "type": "function"
    },
    {
      "constant": false,
      "inputs": [],
      "name": "pause",
      "outputs": [],
      "payable": false,
      "stateMutability": "nonpayable",
      "type": "function"
    },
    {
      "constant": false,
      "inputs": [],
      "name": "unpause",
      "outputs": [],
      "payable": false,
      "stateMutability": "nonpayable",
      "type": "function"
    }
  ],
  "bytecode": "0x6060604052341561000f57600080fd5b60405160c080610df283398101604052808051906020019091908051906020019091908051906020019091908051906020019091908051906020019091908051906020019091905050336000806101000a81548173ffffffffffffffffffffffffffffffffffffffff021916908373ffffffffffffffffffffffffffffffffffffffff160217905550600073ffffffffffffffffffffffffffffffffffffffff168673ffffffffffffffffffffffffffffffffffffffff16141515156100d457600080fd5b84841115156100e257600080fd5b6000831115156100f157600080fd5b82821115156100ff57600080fd5b60008111151561010e57600080fd5b85600160006101000a81548173ffffffffffffffffffffffffffffffffffffffff021916908373ffffffffffffffffffffffffffffffffffffffff1602179055508460028190555083600381905550826004819055508160058190555080600681905550505050505050610c6b806101876000396000f3006060604052600436106100e5576000357c0100000000000000000000000000000000000000000000000000000000900463ffffffff168062362a95146100f057806321f222dd1461011e57806329a2e89e146101475780633f4ba83a146101705780634abfa163146101855780634b6753bc146101e85780635cf565ed146102115780638456cb591461023a5780638ab1d6811461024f5780638c10671c146102885780638da5cb5b146102b6578063934aa0231461030b5780639b19251a14610360578063b7a8807c146103b1578063e43252d7146103da578063f2fde38b14610413575b6100ee3361044c565b005b61011c600480803573ffffffffffffffffffffffffffffffffffffffff1690602001909190505061044c565b005b341561012957600080fd5b61013161056c565b6040518082815260200191505060405180910390f35b341561015257600080fd5b61015a610572565b6040518082815260200191505060405180910390f35b341561017b57600080fd5b610183610578565b005b341561019057600080fd5b6101a660048080359060200190919050506105f0565b604051808273ffffffffffffffffffffffffffffffffffffffff1673ffffffffffffffffffffffffffffffffffffffff16815260200191505060405180910390f35b34156101f357600080fd5b6101fb61062f565b6040518082815260200191505060405180910390f35b341561021c57600080fd5b610224610635565b6040518082815260200191505060405180910390f35b341561024557600080fd5b61024d61063b565b005b341561025a57600080fd5b610286600480803573ffffffffffffffffffffffffffffffffffffffff169060200190919050506106b3565b005b341561029357600080fd5b6102b460048080359060200190820180359060200191909192905050610769565b005b34156102c157600080fd5b6102c961086a565b604051808273ffffffffffffffffffffffffffffffffffffffff1673ffffffffffffffffffffffffffffffffffffffff16815260200191505060405180910390f35b341561031657600080fd5b61031e61088f565b604051808273ffffffffffffffffffffffffffffffffffffffff1673ffffffffffffffffffffffffffffffffffffffff16815260200191505060405180910390f35b341561036b57600080fd5b610397600480803573ffffffffffffffffffffffffffffffffffffffff169060200190919050506108b5565b604051808215151515815260200191505060405180910390f35b34156103bc57600080fd5b6103c46108d5565b6040518082815260200191505060405180910390f35b34156103e557600080fd5b610411600480803573ffffffffffffffffffffffffffffffffffffffff169060200190919050506108db565b005b341561041e57600080fd5b61044a600480803573ffffffffffffffffffffffffffffffffffffffff16906020019091905050610991565b005b6104568134610ae6565b600160009054906101000a900473ffffffffffffffffffffffffffffffffffffffff1673ffffffffffffffffffffffffffffffffffffffff166108fc349081150290604051600060405180830381858888f1935050505015156104b857600080fd5b600780548060010182816104cc9190610bee565b9160005260206000209001600083909190916101000a81548173ffffffffffffffffffffffffffffffffffffffff021916908373ffffffffffffffffffffffffffffffffffffffff160217905550503373ffffffffffffffffffffffffffffffffffffffff167f2a01595cddf097c90216094025db714da3f4e5bd8877b56ba86a24ecead8e543346040518082815260200191505060405180910390a250565b60045481565b60065481565b6000809054906101000a900473ffffffffffffffffffffffffffffffffffffffff1673ffffffffffffffffffffffffffffffffffffffff163373ffffffffffffffffffffffffffffffffffffffff161415156105d357600080fd5b6000600960006101000a81548160ff021916908315150217905550565b6007818154811015156105ff57fe5b90600052602060002090016000915054906101000a900473ffffffffffffffffffffffffffffffffffffffff1681565b60035481565b60055481565b6000809054906101000a900473ffffffffffffffffffffffffffffffffffffffff1673ffffffffffffffffffffffffffffffffffffffff163373ffffffffffffffffffffffffffffffffffffffff1614151561069657600080fd5b6001600960006101000a81548160ff021916908315150217905550565b6000809054906101000a900473ffffffffffffffffffffffffffffffffffffffff1673ffffffffffffffffffffffffffffffffffffffff163373ffffffffffffffffffffffffffffffffffffffff1614151561070e57600080fd5b6000600860008373ffffffffffffffffffffffffffffffffffffffff1673ffffffffffffffffffffffffffffffffffffffff16815260200190815260200160002060006101000a81548160ff02191690831515021790555050565b60008060009054906101000a900473ffffffffffffffffffffffffffffffffffffffff1673ffffffffffffffffffffffffffffffffffffffff163373ffffffffffffffffffffffffffffffffffffffff161415156107c657600080fd5b600090505b828290508110156108655760016008600085858581811015156107ea57fe5b9050602002013573ffffffffffffffffffffffffffffffffffffffff1673ffffffffffffffffffffffffffffffffffffffff1673ffffffffffffffffffffffffffffffffffffffff16815260200190815260200160002060006101000a81548160ff02191690831515021790555080806001019150506107cb565b505050565b6000809054906101000a900473ffffffffffffffffffffffffffffffffffffffff1681565b600160009054906101000a900473ffffffffffffffffffffffffffffffffffffffff1681565b60086020528060005260406000206000915054906101000a900460ff1681565b60025481565b6000809054906101000a900473ffffffffffffffffffffffffffffffffffffffff1673ffffffffffffffffffffffffffffffffffffffff163373ffffffffffffffffffffffffffffffffffffffff1614151561093657600080fd5b6001600860008373ffffffffffffffffffffffffffffffffffffffff1673ffffffffffffffffffffffffffffffffffffffff16815260200190815260200160002060006101000a81548160ff02191690831515021790555050565b6000809054906101000a900473ffffffffffffffffffffffffffffffffffffffff1673ffffffffffffffffffffffffffffffffffffffff163373ffffffffffffffffffffffffffffffffffffffff161415156109ec57600080fd5b600073ffffffffffffffffffffffffffffffffffffffff168173ffffffffffffffffffffffffffffffffffffffff1614151515610a2857600080fd5b8073ffffffffffffffffffffffffffffffffffffffff166000809054906101000a900473ffffffffffffffffffffffffffffffffffffffff1673ffffffffffffffffffffffffffffffffffffffff167f8be0079c531659141344cd1fd0a4f28419497f9722a3daafe3b4186f6b6457e060405160405180910390a3806000806101000a81548173ffffffffffffffffffffffffffffffffffffffff021916908373ffffffffffffffffffffffffffffffffffffffff16021790555050565b6002544210158015610afa57506003544211155b1515610b0557600080fd5b600960009054906101000a900460ff16151515610b2157600080fd5b60065460078054905011151515610b3757600080fd5b600860008373ffffffffffffffffffffffffffffffffffffffff1673ffffffffffffffffffffffffffffffffffffffff16815260200190815260200160002060009054906101000a900460ff161515610b8f57600080fd5b600073ffffffffffffffffffffffffffffffffffffffff168273ffffffffffffffffffffffffffffffffffffffff1614151515610bcb57600080fd5b8060045411158015610bdf57506005548111155b1515610bea57600080fd5b5050565b815481835581811511610c1557818360005260206000209182019101610c149190610c1a565b5b505050565b610c3c91905b80821115610c38576000816000905550600101610c20565b5090565b905600a165627a7a723058204a7f5f56e605ad39e66223c90729c5c6835424cc09afd4fb19252f0e280976a10029",
  "source": "pragma solidity ^0.4.19;\n\nimport \"./Ownable.sol\";\n\n/**\n * @title Donate\n * @dev Donate is a base contract for managing a donation,\n */\ncontract Donate is Ownable {\n  address public charity;\n  uint256 public openingTime;\n  uint256 public closingTime;\n  uint256 public minWeiAmount;\n  uint256 public maxWeiAmount;\n  uint256 public maxNumDonors;\n\n  address[] public donors;\n\n  mapping(address => bool) public whitelist;\n\n  bool paused;\n\n  event Donated(address indexed donor, uint256 amount);\n\n  /**\n   * @param _charity Address where collected funds will be forwarded to\n   * @param _openingTime Donate opening time\n   * @param _closingTime Donate closing time\n   * @param _minWeiAmount minimun donation amount\n   * @param _maxWeiAmount maximum donation amount\n   * @param _maxNumDonors maximum number of donors\n  */\n  function Donate(address _charity, uint256 _openingTime, uint256 _closingTime, uint256 _minWeiAmount, uint256 _maxWeiAmount, uint256 _maxNumDonors) public {\n    require(_charity != address(0));\n    require(_closingTime > _openingTime);\n    require(_minWeiAmount > 0);\n    require(_maxWeiAmount > _minWeiAmount);\n    require(_maxNumDonors > 0);\n\n    charity = _charity;\n    openingTime = _openingTime;\n    closingTime = _closingTime;\n    minWeiAmount = _minWeiAmount;\n    maxWeiAmount = _maxWeiAmount;\n    maxNumDonors = _maxNumDonors;\n  }\n\n  // -----------------------------------------\n  // External interface\n  // -----------------------------------------\n\n  /**\n   * @dev fallback function ***DO NOT OVERRIDE***\n   */\n  function () external payable {\n    donate(msg.sender);\n  }\n\n  /**\n   * @dev low level donation\n   * @param _donor Address performing the donation\n   */\n  function donate(address _donor) public payable {\n    _preValidateDonate(_donor, msg.value);\n\n    charity.transfer(msg.value);\n    donors.push(_donor);\n\n    Donated(msg.sender, msg.value);\n  }\n\n  /**\n   * @dev Adds single address to whitelist.\n   * @param _donor Address to be added to the whitelist\n   */\n  function addToWhitelist(address _donor) external onlyOwner {\n    whitelist[_donor] = true;\n  }\n  \n  /**\n   * @dev Adds list of addresses to whitelist. Not overloaded due to limitations with truffle testing. \n   * @param _donors Addresses to be added to the whitelist\n   */\n  function addManyToWhitelist(address[] _donors) external onlyOwner {\n    for (uint256 i = 0; i < _donors.length; i++) {\n      whitelist[_donors[i]] = true;\n    }\n  }\n\n  /**\n   * @dev Removes single address from whitelist. \n   * @param _donor Address to be removed to the whitelist\n   */\n  function removeFromWhitelist(address _donor) external onlyOwner {\n    whitelist[_donor] = false;\n  }\n\n  function pause() public onlyOwner {\n    paused = true;\n  }\n\n  function unpause() public onlyOwner {\n    paused = false;\n  }\n\n  // -----------------------------------------\n  // Internal interface (extensible)\n  // -----------------------------------------\n\n  /**\n   * @dev Validation of an incoming donation. Use require statemens to revert state when conditions are not met. Use super to concatenate validations.\n   * @param _donor Address performing the donation\n   * @param _weiAmount Value in wei involved in the donation\n   */\n  function _preValidateDonate(address _donor, uint256 _weiAmount) internal {\n    require(now >= openingTime && now <= closingTime);\n    require(!paused);\n    require(donors.length <= maxNumDonors);\n    require(whitelist[_donor]);\n    require(_donor != address(0));\n    require(minWeiAmount <= _weiAmount && _weiAmount <= maxWeiAmount);\n  }\n}\n",
  "sourcePath": "/Users/raullen/work/src/github.com/iotexproject/IOTX-charity-contracts/contracts/Donate.sol",
  "compiler": {
    "name": "solc",
    "version": "0.4.19+commit.c4cbbb05.Emscripten.clang"
  },
  "schemaVersion": "2.0.0",
  "updatedAt": "2018-03-14T06:30:21.409Z"
}