{
  "contractName": "Donate",
  "abi": [
    {
      "constant": true,
      "inputs": [],
      "name": "minWeiAmount",
      "outputs": [
        {
          "name": "",
          "type": "uint256"
        }
      ],
      "payable": false,
      "stateMutability": "view",
      "type": "function"
    },
    {
      "constant": true,
      "inputs": [],
      "name": "maxNumDonors",
      "outputs": [
        {
          "name": "",
          "type": "uint256"
        }
      ],
      "payable": false,
      "stateMutability": "view",
      "type": "function"
    },
    {
      "constant": true,
      "inputs": [
        {
          "name": "",
          "type": "uint256"
        }
      ],
      "name": "donors",
      "outputs": [
        {
          "name": "",
          "type": "address"
        }
      ],
      "payable": false,
      "stateMutability": "view",
      "type": "function"
    },
    {
      "constant": true,
      "inputs": [],
      "name": "closingTime",
      "outputs": [
        {
          "name": "",
          "type": "uint256"
        }
      ],
      "payable": false,
      "stateMutability": "view",
      "type": "function"
    },
    {
      "constant": true,
      "inputs": [],
      "name": "maxWeiAmount",
      "outputs": [
        {
          "name": "",
          "type": "uint256"
        }
      ],
      "payable": false,
      "stateMutability": "view",
      "type": "function"
    },
    {
      "constant": true,
      "inputs": [],
      "name": "owner",
      "outputs": [
        {
          "name": "",
          "type": "address"
        }
      ],
      "payable": false,
      "stateMutability": "view",
      "type": "function"
    },
    {
      "constant": true,
      "inputs": [],
      "name": "charity",
      "outputs": [
        {
          "name": "",
          "type": "address"
        }
      ],
      "payable": false,
      "stateMutability": "view",
      "type": "function"
    },
    {
      "constant": true,
      "inputs": [
        {
          "name": "",
          "type": "address"
        }
      ],
      "name": "whitelist",
      "outputs": [
        {
          "name": "",
          "type": "bool"
        }
      ],
      "payable": false,
      "stateMutability": "view",
      "type": "function"
    },
    {
      "constant": true,
      "inputs": [],
      "name": "openingTime",
      "outputs": [
        {
          "name": "",
          "type": "uint256"
        }
      ],
      "payable": false,
      "stateMutability": "view",
      "type": "function"
    },
    {
      "constant": false,
      "inputs": [
        {
          "name": "newOwner",
          "type": "address"
        }
      ],
      "name": "transferOwnership",
      "outputs": [],
      "payable": false,
      "stateMutability": "nonpayable",
      "type": "function"
    },
    {
      "inputs": [
        {
          "name": "_charity",
          "type": "address"
        },
        {
          "name": "_openingTime",
          "type": "uint256"
        },
        {
          "name": "_closingTime",
          "type": "uint256"
        },
        {
          "name": "_minWeiAmount",
          "type": "uint256"
        },
        {
          "name": "_maxWeiAmount",
          "type": "uint256"
        },
        {
          "name": "_maxNumDonors",
          "type": "uint256"
        }
      ],
      "payable": false,
      "stateMutability": "nonpayable",
      "type": "constructor"
    },
    {
      "payable": true,
      "stateMutability": "payable",
      "type": "fallback"
    },
    {
      "anonymous": false,
      "inputs": [
        {
          "indexed": true,
          "name": "donor",
          "type": "address"
        },
        {
          "indexed": false,
          "name": "amount",
          "type": "uint256"
        }
      ],
      "name": "Donated",
      "type": "event"
    },
    {
      "anonymous": false,
      "inputs": [
        {
          "indexed": true,
          "name": "previousOwner",
          "type": "address"
        },
        {
          "indexed": true,
          "name": "newOwner",
          "type": "address"
        }
      ],
      "name": "OwnershipTransferred",
      "type": "event"
    },
    {
      "constant": false,
      "inputs": [
        {
          "name": "_donor",
          "type": "address"
        }
      ],
      "name": "donate",
      "outputs": [],
      "payable": true,
      "stateMutability": "payable",
      "type": "function"
    },
    {
      "constant": false,
      "inputs": [
        {
          "name": "_openingTime",
          "type": "uint256"
        },
        {
          "name": "_closingTime",
          "type": "uint256"
        }
      ],
      "name": "setOpeningClosingTimes",
      "outputs": [],
      "payable": false,
      "stateMutability": "nonpayable",
      "type": "function"
    },
    {
      "constant": false,
      "inputs": [
        {
          "name": "_donor",
          "type": "address"
        }
      ],
      "name": "addToWhitelist",
      "outputs": [],
      "payable": false,
      "stateMutability": "nonpayable",
      "type": "function"
    },
    {
      "constant": false,
      "inputs": [
        {
          "name": "_donors",
          "type": "address[]"
        }
      ],
      "name": "addManyToWhitelist",
      "outputs": [],
      "payable": false,
      "stateMutability": "nonpayable",
      "type": "function"
    },
    {
      "constant": false,
      "inputs": [
        {
          "name": "_donor",
          "type": "address"
        }
      ],
      "name": "removeFromWhitelist",
      "outputs": [],
      "payable": false,
      "stateMutability": "nonpayable",
      "type": "function"
    },
    {
      "constant": false,
      "inputs": [],
      "name": "pause",
      "outputs": [],
      "payable": false,
      "stateMutability": "nonpayable",
      "type": "function"
    },
    {
      "constant": false,
      "inputs": [],
      "name": "unpause",
      "outputs": [],
      "payable": false,
      "stateMutability": "nonpayable",
      "type": "function"
    }
  ],
  "bytecode": "0x6060604052341561000f57600080fd5b60405160c080610ecd83398101604052808051906020019091908051906020019091908051906020019091908051906020019091908051906020019091908051906020019091905050336000806101000a81548173ffffffffffffffffffffffffffffffffffffffff021916908373ffffffffffffffffffffffffffffffffffffffff160217905550600073ffffffffffffffffffffffffffffffffffffffff168673ffffffffffffffffffffffffffffffffffffffff16141515156100d457600080fd5b84841115156100e257600080fd5b6000831115156100f157600080fd5b82821115156100ff57600080fd5b60008111151561010e57600080fd5b85600160006101000a81548173ffffffffffffffffffffffffffffffffffffffff021916908373ffffffffffffffffffffffffffffffffffffffff1602179055508460028190555083600381905550826004819055508160058190555080600681905550505050505050610d46806101876000396000f3006060604052600436106100f0576000357c0100000000000000000000000000000000000000000000000000000000900463ffffffff168062362a95146100fb57806321f222dd1461012957806329a2e89e146101525780633e342b2b1461017b5780633f4ba83a146101a75780634abfa163146101bc5780634b6753bc1461021f5780635cf565ed146102485780638456cb59146102715780638ab1d681146102865780638c10671c146102bf5780638da5cb5b146102ed578063934aa023146103425780639b19251a14610397578063b7a8807c146103e8578063e43252d714610411578063f2fde38b1461044a575b6100f933610483565b005b610127600480803573ffffffffffffffffffffffffffffffffffffffff16906020019091905050610483565b005b341561013457600080fd5b61013c61059c565b6040518082815260200191505060405180910390f35b341561015d57600080fd5b6101656105a2565b6040518082815260200191505060405180910390f35b341561018657600080fd5b6101a560048080359060200190919080359060200190919050506105a8565b005b34156101b257600080fd5b6101ba61061c565b005b34156101c757600080fd5b6101dd60048080359060200190919050506106af565b604051808273ffffffffffffffffffffffffffffffffffffffff1673ffffffffffffffffffffffffffffffffffffffff16815260200191505060405180910390f35b341561022a57600080fd5b6102326106ee565b6040518082815260200191505060405180910390f35b341561025357600080fd5b61025b6106f4565b6040518082815260200191505060405180910390f35b341561027c57600080fd5b6102846106fa565b005b341561029157600080fd5b6102bd600480803573ffffffffffffffffffffffffffffffffffffffff1690602001909190505061078e565b005b34156102ca57600080fd5b6102eb60048080359060200190820180359060200191909192905050610844565b005b34156102f857600080fd5b610300610945565b604051808273ffffffffffffffffffffffffffffffffffffffff1673ffffffffffffffffffffffffffffffffffffffff16815260200191505060405180910390f35b341561034d57600080fd5b61035561096a565b604051808273ffffffffffffffffffffffffffffffffffffffff1673ffffffffffffffffffffffffffffffffffffffff16815260200191505060405180910390f35b34156103a257600080fd5b6103ce600480803573ffffffffffffffffffffffffffffffffffffffff16906020019091905050610990565b604051808215151515815260200191505060405180910390f35b34156103f357600080fd5b6103fb6109b0565b6040518082815260200191505060405180910390f35b341561041c57600080fd5b610448600480803573ffffffffffffffffffffffffffffffffffffffff169060200190919050506109b6565b005b341561045557600080fd5b610481600480803573ffffffffffffffffffffffffffffffffffffffff16906020019091905050610a6c565b005b600061048f8234610bc1565b623d09009050600160009054906101000a900473ffffffffffffffffffffffffffffffffffffffff1673ffffffffffffffffffffffffffffffffffffffff16348290604051600060405180830381858888f1935050505050600780548060010182816104fb9190610cc9565b9160005260206000209001600084909190916101000a81548173ffffffffffffffffffffffffffffffffffffffff021916908373ffffffffffffffffffffffffffffffffffffffff160217905550503373ffffffffffffffffffffffffffffffffffffffff167f2a01595cddf097c90216094025db714da3f4e5bd8877b56ba86a24ecead8e543346040518082815260200191505060405180910390a25050565b60045481565b60065481565b6000809054906101000a900473ffffffffffffffffffffffffffffffffffffffff1673ffffffffffffffffffffffffffffffffffffffff163373ffffffffffffffffffffffffffffffffffffffff1614151561060357600080fd5b818111151561061157600080fd5b816002819055505050565b6000809054906101000a900473ffffffffffffffffffffffffffffffffffffffff1673ffffffffffffffffffffffffffffffffffffffff163373ffffffffffffffffffffffffffffffffffffffff1614151561067757600080fd5b600960009054906101000a900460ff16151561069257600080fd5b6000600960006101000a81548160ff021916908315150217905550565b6007818154811015156106be57fe5b90600052602060002090016000915054906101000a900473ffffffffffffffffffffffffffffffffffffffff1681565b60035481565b60055481565b6000809054906101000a900473ffffffffffffffffffffffffffffffffffffffff1673ffffffffffffffffffffffffffffffffffffffff163373ffffffffffffffffffffffffffffffffffffffff1614151561075557600080fd5b600960009054906101000a900460ff1615151561077157600080fd5b6001600960006101000a81548160ff021916908315150217905550565b6000809054906101000a900473ffffffffffffffffffffffffffffffffffffffff1673ffffffffffffffffffffffffffffffffffffffff163373ffffffffffffffffffffffffffffffffffffffff161415156107e957600080fd5b6000600860008373ffffffffffffffffffffffffffffffffffffffff1673ffffffffffffffffffffffffffffffffffffffff16815260200190815260200160002060006101000a81548160ff02191690831515021790555050565b60008060009054906101000a900473ffffffffffffffffffffffffffffffffffffffff1673ffffffffffffffffffffffffffffffffffffffff163373ffffffffffffffffffffffffffffffffffffffff161415156108a157600080fd5b600090505b828290508110156109405760016008600085858581811015156108c557fe5b9050602002013573ffffffffffffffffffffffffffffffffffffffff1673ffffffffffffffffffffffffffffffffffffffff1673ffffffffffffffffffffffffffffffffffffffff16815260200190815260200160002060006101000a81548160ff02191690831515021790555080806001019150506108a6565b505050565b6000809054906101000a900473ffffffffffffffffffffffffffffffffffffffff1681565b600160009054906101000a900473ffffffffffffffffffffffffffffffffffffffff1681565b60086020528060005260406000206000915054906101000a900460ff1681565b60025481565b6000809054906101000a900473ffffffffffffffffffffffffffffffffffffffff1673ffffffffffffffffffffffffffffffffffffffff163373ffffffffffffffffffffffffffffffffffffffff16141515610a1157600080fd5b6001600860008373ffffffffffffffffffffffffffffffffffffffff1673ffffffffffffffffffffffffffffffffffffffff16815260200190815260200160002060006101000a81548160ff02191690831515021790555050565b6000809054906101000a900473ffffffffffffffffffffffffffffffffffffffff1673ffffffffffffffffffffffffffffffffffffffff163373ffffffffffffffffffffffffffffffffffffffff16141515610ac757600080fd5b600073ffffffffffffffffffffffffffffffffffffffff168173ffffffffffffffffffffffffffffffffffffffff1614151515610b0357600080fd5b8073ffffffffffffffffffffffffffffffffffffffff166000809054906101000a900473ffffffffffffffffffffffffffffffffffffffff1673ffffffffffffffffffffffffffffffffffffffff167f8be0079c531659141344cd1fd0a4f28419497f9722a3daafe3b4186f6b6457e060405160405180910390a3806000806101000a81548173ffffffffffffffffffffffffffffffffffffffff021916908373ffffffffffffffffffffffffffffffffffffffff16021790555050565b6002544210158015610bd557506003544211155b1515610be057600080fd5b600960009054906101000a900460ff16151515610bfc57600080fd5b60065460078054905011151515610c1257600080fd5b600860008373ffffffffffffffffffffffffffffffffffffffff1673ffffffffffffffffffffffffffffffffffffffff16815260200190815260200160002060009054906101000a900460ff161515610c6a57600080fd5b600073ffffffffffffffffffffffffffffffffffffffff168273ffffffffffffffffffffffffffffffffffffffff1614151515610ca657600080fd5b8060045411158015610cba57506005548111155b1515610cc557600080fd5b5050565b815481835581811511610cf057818360005260206000209182019101610cef9190610cf5565b5b505050565b610d1791905b80821115610d13576000816000905550600101610cfb565b5090565b905600a165627a7a723058207cbf5465e108fcab78e9977eea855658da96107ae53edb9774d4071cd8b4b99a0029",
  "source": "pragma solidity ^0.4.19;\n\nimport \"./Ownable.sol\";\n\n/**\n * @title Donate\n * @dev Donate is a base contract for managing a donation\n */\ncontract Donate is Ownable {\n  address public charity;\n  uint256 public openingTime;\n  uint256 public closingTime;\n  uint256 public minWeiAmount;\n  uint256 public maxWeiAmount;\n  uint256 public maxNumDonors;\n\n  address[] public donors;\n\n  mapping(address => bool) public whitelist;\n\n  bool paused;\n\n  event Donated(address indexed donor, uint256 amount);\n\n  /**\n   * @param _charity Address where collected funds will be forwarded to\n   * @param _openingTime Donate opening time\n   * @param _closingTime Donate closing time\n   * @param _minWeiAmount Minimun donation amount in wei\n   * @param _maxWeiAmount Maximum donation amount in wei\n   * @param _maxNumDonors Maximum number of donors\n  */\n  function Donate(address _charity, uint256 _openingTime, uint256 _closingTime, uint256 _minWeiAmount, uint256 _maxWeiAmount, uint256 _maxNumDonors) public {\n    require(_charity != address(0));\n    require(_closingTime > _openingTime);\n    require(_minWeiAmount > 0);\n    require(_maxWeiAmount > _minWeiAmount);\n    require(_maxNumDonors > 0);\n\n    charity = _charity;\n    openingTime = _openingTime;\n    closingTime = _closingTime;\n    minWeiAmount = _minWeiAmount;\n    maxWeiAmount = _maxWeiAmount;\n    maxNumDonors = _maxNumDonors;\n  }\n\n  // -----------------------------------------\n  // External interface\n  // -----------------------------------------\n\n  /**\n   * @dev fallback function ***DO NOT OVERRIDE***\n   */\n  function () external payable {\n    donate(msg.sender);\n  }\n\n  /**\n   * @dev low level donation\n   * @param _donor Address performing the donation\n   */\n  function donate(address _donor) public payable {\n    _preValidateDonate(_donor, msg.value);\n\n    uint GAS_LIMIT = 4000000;\n    charity.call.value(msg.value).gas(GAS_LIMIT)();\n    donors.push(_donor);\n\n    Donated(msg.sender, msg.value);\n  }\n\n  /**\n   * @dev Sets opening and closing times\n   * @param _openingTime and _closingTime are the opening and closing time to set to\n   */\n  function setOpeningClosingTimes(uint256 _openingTime, uint256 _closingTime) external onlyOwner {\n    require(_closingTime > _openingTime);\n    openingTime = _openingTime;\n  }\n\n  /**\n   * @dev Adds single address to whitelist.\n   * @param _donor Address to be added to the whitelist\n   */\n  function addToWhitelist(address _donor) external onlyOwner {\n    whitelist[_donor] = true;\n  }\n  \n  /**\n   * @dev Adds list of addresses to whitelist. Not overloaded due to limitations with truffle testing. \n   * @param _donors Addresses to be added to the whitelist\n   */\n  function addManyToWhitelist(address[] _donors) external onlyOwner {\n    for (uint256 i = 0; i < _donors.length; i++) {\n      whitelist[_donors[i]] = true;\n    }\n  }\n\n  /**\n   * @dev Removes single address from whitelist. \n   * @param _donor Address to be removed to the whitelist\n   */\n  function removeFromWhitelist(address _donor) external onlyOwner {\n    whitelist[_donor] = false;\n  }\n\n  /**\n   * @dev called by the owner to pause, triggers stopped state\n   */\n  function pause() external onlyOwner {\n    require(!paused);\n    paused = true;\n  }\n\n  /**\n   * @dev called by the owner to unpause, returns to normal state\n   */\n  function unpause() external onlyOwner {\n    require(paused);\n    paused = false;\n  }\n\n  // -----------------------------------------\n  // Internal interface (extensible)\n  // -----------------------------------------\n\n  /**\n   * @dev Validation of an incoming donation\n   * @param _donor Address performing the donation\n   * @param _weiAmount Value in wei involved in the donation\n   */\n  function _preValidateDonate(address _donor, uint256 _weiAmount) internal {\n    require(now >= openingTime && now <= closingTime);\n    require(!paused);\n    require(donors.length <= maxNumDonors);\n    require(whitelist[_donor]);\n    require(_donor != address(0));\n    require(minWeiAmount <= _weiAmount && _weiAmount <= maxWeiAmount);\n  }\n}\n",
  "sourcePath": "/Users/raullen/work/src/github.com/iotexproject/IOTX-charity-contracts/contracts/Donate.sol",
  "compiler": {
    "name": "solc",
    "version": "0.4.19+commit.c4cbbb05.Emscripten.clang"
  },
  "schemaVersion": "2.0.0",
  "updatedAt": "2018-03-20T04:01:01.183Z"
}